:100000005CC0000082C0000080C000007EC0000014
:100010007CC000007AC0000078C0000076C00000FC
:1000200074C0000072C0000070C000006EC000000C
:100030006CC000000C94132168C0000066C0000072
:100040000C94FF2462C000000C949B270C94CD27D5
:100050005CC000005AC0000058C0000056C000003C
:1000600054C0000052C0000000000008000201005F
:100070000003040700000000000000000102040863
:100080001020408001020408102001020408102002
:10009000040404040404040402020202020203032E
:1000A0000303030300000000250028002B000000CC
:1000B0000000240027002A00F22711241FBECFEFE2
:1000C000D8E0DEBFCDBF11E0A0E0B1E0E6E8F1E5A9
:1000D00002C005900D92A03DB107D9F724E0A0ED34
:1000E000B1E001C01D92AA30B207E1F710E0CDE502
:1000F000D0E004C02197FE010E949228CC35D107A0
:10010000C9F70E9463220C94C1287ACF611102C002
:100110000C9408266130E1F362E0FACF662319F00F
:1001200061E00C94442660E0FCCF90E080E008950C
:100130000F931F93009709F487C06115710509F4A7
:1001400083C0009120011091210120912201309162
:1001500023010E3F1F4F2F4F3F4F09F066C04FEF57
:100160005FEFBA0140932001509321016093220177
:10017000709323014091200150912101609122014F
:1001800070912301DC011296ED91FC9180819181A7
:10019000A281B3818093400290934102A0934202D6
:1001A000B093430284819581A681B78180933C02FC
:1001B00090933D02A0933E02B0933F0280859185CB
:1001C000A285B3858093380290933902A0933A02B6
:1001D000B0933B0284859585A685B78580933402CC
:1001E00090933502A0933602B093370210923002FA
:1001F00010923102109232021092330279D58DE9B9
:1002000096E09093D1018093D0019093D301809395
:10021000D2015DD4009731F421E030E03093450203
:10022000209344021F910F91089500912001109195
:1002300021012091220130912301DB010D931D93B7
:100240002D933C93139796CF8FEF9FEFEBCF8F9229
:100250009F92AF92BF92CF92DF92EF92FF921F9345
:10026000CF93DF934B015C011091470282E090E055
:10027000909345028093440281149104A104B10437
:1002800041F480914702811104C080914602C1E08F
:100290008111C0E0C12CD12C7601809147028111DF
:1002A00006C080914602811102C0CC23D9F083E0C0
:1002B00090E09093450280934402CC2379F1CCE9FD
:1002C000DFEF111102C00E94010ACE01DF91CF9130
:1002D0001F91FF90EF90DF90CF90BF90AF909F90D5
:1002E0008F9008956AE070E080E090E00E946E25B3
:1002F00080E1C80E87E2D81EE11CF11C8FEF881642
:100300009806A806B80631F0C1E08C149D04AE042E
:10031000BF0408F0C0E080E00ED4BFCFD0E0C0E062
:10032000D0CFCF92DF92EF92FF920F931F93CF9394
:10033000DF938F3F910511F008F050C020914402E7
:10034000309145022330310539F02091440230913B
:1003500045022130310531F424E030E0309345028C
:10036000209344026A017B01EC0182309105A0F0E8
:1003700011E0AE01C701B601A9D3AB01BC01CE01AA
:100380001123F9F0DF91CF911F910F91FF90EF9022
:10039000DF90CF900C942A0C8C01000F111F00539A
:1003A0001E4FD8018D919C91892B11F30E94340C22
:1003B0000297F1F6D801ED91FC91CE010995182F25
:1003C000D8CF0E944C0C90E080E0DF91CF911F913C
:1003D0000F91FF90EF90DF90CF9008958FEF9FEFF8
:1003E000F4CF80E0A8C3CF93DF9386E090E09093B2
:1003F000450280934402F8D3EC01E0EDF1E084E0A3
:10040000DF011D928A95E9F794D710924502109268
:100410004402CE01DF91CF91089580914602089564
:1004200080912F02089560932001709321018093A1
:1004300022019093230190E080E00895FC0191E077
:1004400080910D02811190E091830895CF92DF9207
:10045000EF92FF926B017C019F7720E030E040E853
:1004600059E50E94632387FF2BC020E030E040E085
:100470005FE3C701B6010E94982487FD0EC020E00B
:1004800030E040E05FE3C701B6010E94EC22FF903C
:10049000EF90DF90CF900C94D02320E030E040E04C
:1004A0005FEBC701B6010E949824181684F420E07F
:1004B00030E0A901C701B6010E949C246B017C01B8
:1004C000C701B601FF90EF90DF90CF90089520E034
:1004D00030E040E05FE3C701B6010E94EB22FF90ED
:1004E000EF90DF90CF900C9450234F925F926F92D9
:1004F0007F928F929F92AF92BF92CF92DF92EF92B4
:10050000FF9280910D028F5F853008F099C0809333
:100510000D02C0900004D0900104E0900204F0901D
:100520000304C701B6010E9495232B013C012091D1
:1005300008013091090140910A0150910B010E947C
:10054000632387FF80C0F7FC7EC0809000019090FD
:100550000101A0900201B090030120E030E040E8EA
:100560005FE3609104017091050180910601909113
:1005700007010E94EB229B01AC01C301B2010E9462
:10058000982487FD64C01092000410920104109218
:10059000020410920304C501B40158DF6B017C0111
:1005A00020E030E040E853E40E9463236FEF87FFD0
:1005B0000EC020E030E0A901C701B6010E949824D6
:1005C00060E087FD04C0C701B6010E9467238DE08B
:1005D000A5DD60910002709101028091020290916C
:1005E00003026F5F7F4F8F4F9F4F609300027093A6
:1005F000010280930202909303020E9493239B01C5
:10060000AC01609104027091050280910602909104
:1006100007020E949C246093FC017093FD0180936B
:10062000FE019093FF01FF90EF90DF90CF90BF907D
:10063000AF909F908F907F906F905F904F900895B4
:1006400010920D0266CF812C912C540186CF8FEF32
:10065000C81AD80AE80AF80AC0920004D092010425
:10066000E0920204F092030496CF4F925F926F9251
:100670007F928F929F92AF92BF92CF92DF92EF9232
:10068000FF92C0900404D0900504E0900604F0901E
:100690000704C701B6010E9495232B013C0120915C
:1006A00018013091190140911A0150911B010E94CB
:1006B000632387FF66C0F7FC64C0809010019090B0
:1006C0001101A0901201B090130120E030E040E849
:1006D0005FE3609114017091150180911601909172
:1006E00017010E94EB229B01AC01C301B2010E94E1
:1006F000982487FD4AC010920404109205041092B9
:10070000060410920704C501B401A0DE6B017C0150
:1007100020E030E040E853E40E9463236FEF87FF5E
:100720000EC020E030E0A901C701B6010E94982464
:1007300060E087FD04C0C701B6010E94672389E01D
:10074000EDDC8091080290910902A0910A02B0911B
:100750000B020196A11DB11D80930802909309021E
:10076000A0930A02B0930B02FF90EF90DF90CF901E
:10077000BF90AF909F908F907F906F905F904F90C1
:100780000895812C912C5401A0CF8FEFC81AD80A5C
:10079000E80AF80AC0920404D0920504E092060424
:1007A000F0920704B0CFCF92DF92EF92FF921F93A7
:1007B000CF93DF93E6EEF1E080E090E0A0E8BFEBBE
:1007C00080A791A7A2A7B3A78DEC9CECACE4BEE3F5
:1007D000868F978FA0A3B1A38EED95E2A3E3BDEA28
:1007E00084839583A683B7838BE39AEBA1E9B6E272
:1007F00080879187A287B3878FE493ECACE8B8E059
:1008000084879587A687B7878FE094EAA7ECB0E83E
:10081000808B918BA28BB38BAAEDB1E0B383A283C3
:10082000E4EDF1E01196FC93EE938DE391E091837A
:10083000808393838283958384838AEF91E01596E6
:100840009C938E9314978AEE91E013969C938E93CB
:1008500012978CEF91E017969C938E931697C0EFAA
:10086000D3E01882C12CD12C7601C394C982DA82DC
:10087000EB82FC8261E08DE049DC11E01D8318868B
:10088000C986DA86EB86FC8661E089E03FDC1D875D
:10089000DF91CF911F91FF90EF90DF90CF9008955F
:1008A0008091F003811103C081E08093F003809177
:1008B000F803811103C081E08093F80308954F92FB
:1008C0005F926F927F928F929F92AF92BF92CF92E0
:1008D000DF92EF92FF920F931F93F89440901F02C4
:1008E000509020026090210270902202C09013026A
:1008F000D0901402E0901502F0901602452B09F0FA
:10090000A6C09B01AC0124193509460957092901E4
:100910003A0100911B0210911C0220911D0230919E
:100920001E0248015901840C951CA61CB71C801698
:100930009106A206B306A0F40091170210911802C6
:100940002091190230911A020F5F1F4F2F4F3F4F16
:1009500000931702109318022093190230931A0281
:1009600080921B0290921C02A0921D02B0921E0265
:1009700000911702109118022091190230911A0269
:100980008092230290922402A0922502B092260225
:1009900000932702109328022093290230932A0201
:1009A00060931F0270932002809321029093220291
:1009B000A301920160E47DE083E090E00E944D2875
:1009C0006C0D7D1D8E1D9F1D60931302709314028C
:1009D000809315029093160200912001109121013D
:1009E00020912201309123010F3F1F4F2F4F3F4F86
:1009F000F1F000912001109121012091220130910C
:100A000023010E3F1F4F2F4F3F4F89F0C090200111
:100A1000D0902101E0902201F090230121E08C147C
:100A20009D04AE04BF0408F420E020932F027894C4
:100A30001F910F91FF90EF90DF90CF90BF90AF90FC
:100A40009F908F907F906F905F904F9008954B0193
:100A50005C0184189508A608B708A3019201261B1B
:100A6000370B480B590B6415750586059705E0F0A3
:100A700082169306A406B50640F420E030E0A901F2
:100A800081149104A104B104A1F460E47DE083E049
:100A900090E00E944D28A7019601261B370B480BBA
:100AA000590BCA01B901C3CF82169306A406B50635
:100AB00060F7A501940160E47DE083E090E00E948E
:100AC0004D286C0D7D1D8E1D9F1DB1CFF8CECF938F
:100AD000DF9300D000D0CDB7DEB71C821B821A8214
:100AE000198210922B0210922C0210922D02109259
:100AF0002E02BE016F5F7F4FCE0103960E94F7204A
:100B000069817A818B819C810E944C1B009761F4E2
:100B1000BE016F5F7F4FCE0103960E940321698162
:100B20007A818B819C812CD50F900F900F900F9024
:100B3000DF91CF910895FF920F931F93CF93DF938F
:100B4000082F60E070E0CB010E946E25FF24F39433
:100B50000E94371AEC01892B89F010E0CE3F8FEF0D
:100B6000D80769F0002361F160E070E0CB010E94DA
:100B70006E2581E090E0892B59F322C011E023D546
:100B8000EC01892B21F0CE3F8FEFD80759F71111D7
:100B90001EC011E0229609F410E00E94E819EC0151
:100BA000892B21F0CE3F8FEFD807E1F6111111C04C
:100BB00011E0CE3F8FEFD80709F410E001110BC010
:100BC000CE01DF91CF911F910F91FF90089511E019
:100BD000E4CF11E0F3CF60E070E0CB010E946E251E
:100BE0001F25812F90E0C7CFCF93DF9380912F02F5
:100BF000882321F060E070E0CB014CD635D6D0E000
:100C0000C0E0892B71F06AE070E080E090E00E9423
:100C10006E2581E090DF28D62196C03D27E0D207DF
:100C200081F727D60E94A01B10924702109246021D
:100C3000109240021092410210924202109243021E
:100C400010923C0210923D0210923E0210923F021E
:100C5000109238021092390210923A0210923B021E
:100C6000109234021092350210923602109237021E
:100C7000109230021092310210923202109233021E
:100C80004EEF5FEF6FEF7FEF409320015093210114
:100C9000609322017093230110922F02E3E2F2E0AD
:100CA00028E0DF011D922A95E9F710921F021092A9
:100CB0002002109221021092220210921B02109226
:100CC0001C0210921D0210921E0210921702109226
:100CD00018021092190210921A0210921302109226
:100CE00014021092150210921602DF91CF9108950E
:100CF0001092530210925402109255021092560212
:100D00001092520280915B0290915C02909351028A
:100D10008093500210924F0210924E0210924A029B
:100D200010924B0210924C0210924D0210925802F7
:100D30001092570290E080E00895CF92DF92EF92F8
:100D4000FF920F931F93CF938C01892B09F055C00D
:100D500020915B0230915C0280915002909151028F
:100D600040915B0250915C025093510240935002BB
:100D70002817390781F010924F0210924E021092FC
:100D80004A0210924B0210924C0210924D021092A5
:100D900058021092570280915B0290915C02019779
:100DA00061F58091570290915802892B21F480912E
:100DB0002401811112C0809157029091580201972D
:100DC000E1F480914A0290914B02A0914C02B091C3
:100DD0004D020197A105B10581F410924A021092CB
:100DE0004B0210924C0210924D021092240182E0AC
:100DF00090E0909358028093570280915B0290910B
:100E00005C02019709F01CC18091710290917202FD
:100E10008017910709F014C180916D0290916E02C4
:100E2000A0916F02B0917002009709F409C120915E
:100E30006C0221110DC040916D0250916E026091C3
:100E40006F0270917002452B462B472B09F4F8C0B6
:100E500020915702309158022230310509F0F0C03C
:100E600020914E022111ECC0FC01C080D180E280B3
:100E7000F38080915202882309F4D3C080915E02EE
:100E800090915F02892B09F4FDC020915E023091A0
:100E90005F0281E02230310509F080E020915E029E
:100EA00030915F02C1E02130310549F020915E02AE
:100EB00030915F02C1E02230310509F0C0E08823A3
:100EC00009F456C0209168023091690240916A028B
:100ED00050916B02C701B6010E94982487FD14C08F
:100EE000209168023091690240916A0250916B0230
:100EF0006091530270915402809155029091560274
:100F00000E94632387FD22C020916802309169020C
:100F100040916A0250916B02C701B6010E94982469
:100F2000181634F5209168023091690240916A02E6
:100F300050916B026091530270915402809155025E
:100F4000909156020E946323811112C08091600229
:100F500090916102A0916202B0916302892B8A2B69
:100F60008B2B19F481E080934F0281E080934E0235
:100F7000CC2309F456C02091680230916902409157
:100F80006A0250916B02C701B6010E94632387FF7A
:100F900014C0209168023091690240916A02509118
:100FA0006B026091530270915402809155029091AE
:100FB00056020E94982487FF22C020916802309137
:100FC000690240916A0250916B02C701B6010E940A
:100FD0006323811126C020916802309169024091FB
:100FE0006A0250916B026091530270915402809199
:100FF0005502909156020E949824181694F48091FC
:10100000600290916102A0916202B0916302892B0B
:101010008A2B8B2B19F481E080934F0281E080931F
:101020004E0281E090914E02911180E08093520235
:10103000C0925302D0925402E0925502F0925602AE
:10104000012B09F067C18091570290915802892BBA
:10105000D9F410925D0210924E02809124018823EF
:1010600079F082E090E090935802809357021092BA
:10107000240120915B0230915C0281E0232BE9F096
:1010800080E01BC081E00ACF1092240180915D02B4
:10109000882349F010924F02109258021092570282
:1010A00010925D02EDCF80915B0290915C02892BE2
:1010B000E1F080914E0210924E0220915702309141
:1010C00058022230310509F45EC088F4211531053B
:1010D00009F448C02130310509F4F3C010924F02E1
:1010E00010924E0210925D0238C081E0E6CF2330AC
:1010F000310509F4B1C02430310581F740914A022D
:1011000050914B0260914C0270914D024115510576
:101110006105710561F04150510961097109409300
:101120004A0250934B0260934C0270934D024091DF
:101130004A0250914B0260914C0270914D02452B36
:10114000462B472BD9F42091590230915A02213075
:10115000310509F046C010924F02109258021092C9
:1011600057020CC080912401882341F082E090E076
:1011700090935802809357021092240110924802D3
:1011800080914F02CEC08823C9F380916002909174
:101190006102A0916202B0916302181619061A0644
:1011A0001B060CF07DC080915B0290915C02019760
:1011B00009F076C08091600290916102A091620274
:1011C000B091630280934A0290934B02A0934C0229
:1011D000B0934D0283E090E09093580280935702C1
:1011E000CDCF40916402509165026091660270918A
:1011F0006702452B462B472BA9F010924F02809196
:10120000640290916502A0916602B091670280939A
:101210004A0290934B02A0934C02B0934D0281E09E
:1012200090E0DACF882399F08091250190912601F2
:10123000A0912701B091280180934A0290934B021C
:10124000A0934C02B0934D0284E090E0C5CF109281
:101250004F0282E090E0C0CF80914A0290914B0211
:10126000A0914C02B0914D020097A105B10559F033
:101270000197A109B10980934A0290934B02A09370
:101280004C02B0934D0280914A0290914B02A09182
:101290004C02B0914D02892B8A2B8B2B09F06ECF1B
:1012A0008091250190912601A0912701B0912801FC
:1012B000892B8A2B8B2B09F44ECF81E080934F0230
:1012C000B3CF40914A0250914B0260914C02709111
:1012D0004D02411551056105710561F041505109FB
:1012E0006109710940934A0250934B0260934C028A
:1012F00070934D0240914A0250914B0260914C0212
:1013000070914D02452B462B472B09F037CF8111A9
:10131000C7CF9FCF80914802882309F431CF8091B5
:101320004902CF911F910F91FF90EF90DF90CF90E6
:101330000895109253021092540210925502109286
:1013400056021092520210925802109257021092B6
:101350005102109250021092720210927102109279
:101360004F0210924E0210924A0210924B021092BB
:101370004C0210924D0210924902109248021092B3
:101380006D0210926E0210926F0210927002109213
:101390006C02109268021092690210926A02109216
:1013A0006B0288EE93E0A0E0B0E08093250190937B
:1013B0002601A0932701B093280110926402109295
:1013C00065021092660210926702109260021092FB
:1013D0006102109262021092630210925F021092F8
:1013E0005E0281E08093240110925D0210925C0203
:1013F00010925B0210925A021092590290E080E023
:10140000089580915B0290915C02892B19F580917F
:101410002401882351F080915D02811106C081E092
:101420008093490280934802089520915D02309193
:10143000240181E090E0332311F090E080E030E07F
:1014400082239323892B21F01092490281E0EACF75
:1014500010924802089582E090E0FA01918380831F
:101460008FEF9FEF0895CF93DF93EA01009711F07C
:101470000E941A1C1982188290E080E0DF91CF91BF
:101480000895DB01009719F48FEF8C9308952EEFE8
:101490002C930F968F30910508F033C0FC01ED5A64
:1014A000F54F0C9492287F0A7D0A7B0A790A770A05
:1014B000730A750A710A6F0A6D0A6A0A660A620A75
:1014C000680A810A80E311968C93089589E2FBCF24
:1014D00082E2F9CF11961C92089583E2F4CF81E263
:1014E000F2CF81E1F0CF87E2EECF8AE2ECCF80E16C
:1014F000EACF84E2E8CF88E2E6CF86E2E4CF81E378
:10150000E2CF80E2E0CF80917F0290918002089547
:101510009093800280937F02089580917E020895C7
:1015200090917E02892B80937E020895982F90954A
:1015300080917E02892380937E02089580917D02AE
:10154000089580917B0290917C0208956115710548
:1015500059F0FB0130E020E070E060E0241735072F
:1015600019F06115710511F0CB010895A081B181C9
:10157000A817B90709F4BF012F5F3F4F3696EECF8A
:101580008091810281111CC062D268D29093740252
:10159000809373020E94C2140E94D4149093780224
:1015A000809377020E9452190E94591990937602F3
:1015B0008093750281E08093810290E080E008953D
:1015C00084EF9FEF08958F929F92AF92BF92CF9238
:1015D000DF92EF92FF920F931F93CF93DF93CDB7DC
:1015E000DEB72A970FB6F894DEBF0FBECDBF1A86BE
:1015F000198618861F821E821D821C821B821A82F7
:1016000019828091810207EF1FEF882309F49CC0A3
:101610008E010D5F1F4F9E012B5F3F4FAE01495F53
:101620005F4FBE01675F7F4F90E080E00E94D21A5B
:101630008C01009721F00596029708F0DBC0298500
:101640003A852115310509F402C1ED80FE804B81F8
:101650005C81B701640F751F8F8198858617970786
:1016600008F4F5C0E20EF31ED7019C91903C09F0FE
:101670007FC04230510508F47BC011968C91409197
:101680007F0250918002452B09F49CC0913F08F0E5
:1016900071C02CE1290F2D3008F48BC02DE2290FE9
:1016A000203108F489C0903C21F48150823008F444
:1016B00083C088E3890F8B3008F481C091E4C92E80
:1016C0009AE0D92EEBE2FAE06D817E81AE014F5FA8
:1016D0005F4F89859A8509955C01C114D104A1F1F8
:1016E00089809A808114910479F18B819C8188157D
:1016F000990508F487C010E000E04B815C8170E040
:1017000060E0C7010E94BA2801151105E9F449817A
:101710005A8169857A858D819E81680F791FC501FF
:10172000F6010995E980FA800D811E812F813885A7
:1017300049855A856FEF7FEF81E090E00E946E1A35
:101740008C01892B09F056C0C8012A960FB6F8946F
:10175000DEBF0FBECDBFDF91CF911F910F91FF90E4
:10176000EF90DF90CF90BF90AF909F908F900895B3
:1017700080E085CF30E020E0220F331FF901ED58E3
:10178000FD4F0190F081E02D309709F497CF892F1C
:1017900090E00995009709F491CFDC011296ED9144
:1017A000FC9113971496CD90DC90309709F08CCF74
:1017B0001FC021E030E0E0CF22E030E0DDCF23E0C9
:1017C00030E0DACFD12CC12CE3E3FAE09F3F09F0FF
:1017D0007BCFE0917302F0917402309721F4C9013C
:1017E00004EF1FEF0CC08FEF90E009950097A9F66A
:1017F00004EF1FEF89859A85009709F4A5CF0E9411
:101800001A1CA2CF0E949B1B8C0189859A850E947D
:101810001A1C70E060E0C4010E94341B98878F831B
:101820000E946B1A9E838D836F8178856115710587
:1018300059F0C8010E943D1D9A87898706EF1FEF66
:10184000892B09F058CF59CF08EF1FEF56CF08EF7B
:101850001FEFD0CF20918102222319F020E00C94B9
:10186000D91487EF9FEF089580917F0290918002B5
:1018700008950E945E190E94B818F5D0E3E7F2E0DF
:1018800088E0DF011D928A95E9F71092810290E0CD
:1018900080E008950C94151721E040E050E0BA0173
:1018A0000C94D91486E090E0FA019183808390E053
:1018B00080E0089547E050E060E471E047CEDF92B9
:1018C000EF92FF920F931F93CF93DF938A01EC0166
:1018D000C60FD71FE0908502F0908602D9800E9443
:1018E000831BD816190678F082E090E0F801918306
:1018F00080838EEF9FEFDF91CF911F910F91FF902B
:10190000EF90DF900895EF2841F482E090E0F80135
:101910009183808384EF9FEFEECF8981809384024F
:1019200090E00196F8019183808390E080E0E3CF1E
:10193000CF93DF93EA010E94C617882321F00E940B
:10194000901B0E94C71782E090E0998388838BEFF9
:101950009FEFDF91CF910895CF93DF93EB0186E066
:10196000FB0111928A95E9F78FEF8883D6DD898391
:10197000E5DD8A83E6DD9D838C83DF91CF91089539
:10198000CF93DF93EA010E94C917811109C082E059
:1019900090E09983888385EF9FEFDF91CF91089541
:1019A00090E080E0B5DD81E090E09983888390E06D
:1019B00080E0F3CF0F931F93CF93DF93EA018C0165
:1019C000060F171F0E94C91781110BC082E090E01B
:1019D0009983888385EF9FEFDF91CF911F910F91BE
:1019E0000895F8018181823038F082E090E0998397
:1019F00088838EEF9FEFF0CF81E090E089DD88E073
:101A000090E09983888390E080E0E6CFCF93DF93E6
:101A10000097D1F4EB01FB01329686E0DF011D92C5
:101A20008A95E9F78FEF888385E089831A820E947F
:101A3000831B8B830E94821B9D838C8381E08E831A
:101A40008F83DF91CF910895DF91CF911ACD8AE5F1
:101A50009CE0909383028093820208958091820299
:101A60009091830208951092830210928202089549
:101A700080918502909186020895411105C06115FB
:101A800071058105910561F060938502709386026E
:101A900080938702909388024093890281E00895A1
:101AA00080E00895FF920F931F93CF93DF938A01F5
:101AB000EC01C60FD71FF9800E94831BF816190688
:101AC00068F082E090E0F801918380838EEF9FEFD1
:101AD000DF91CF911F910F91FF9008956C817D81CF
:101AE0008E819F814B81C9DF811108C082E090E027
:101AF000F8019183808384EF9FEFEACF89818093FF
:101B0000840290E00196F8019183808390E080E068
:101B1000DFCFCF93DF93EA01FC01E60FF71F64816B
:101B20007581868197814381A8DF811109C082E098
:101B300090E09983888384EF9FEFDF91CF910895A0
:101B400081E090E09983888390E080E0F6CFE5E83B
:101B5000F2E04081518162817381480F511D611D06
:101B6000711D40835183628373830895CF93C09125
:101B700084024C2F50E0609185027091860201969C
:101B80000E94B1288C2FE3DF10928402CF91089538
:101B9000009799F480918502909186022FEFFB01C6
:101BA0002083892B59F02091840230E02F5F3F4F32
:101BB0002417350719F4CB01D9CF63CC08950097CA
:101BC00099F480918502909186022FEFFB0120838A
:101BD000892B59F02091840230E02F5F3F4F24176A
:101BE000350719F4CB01C2CF4CCC089523E1AC01E9
:101BF000249FC001259F900D1124E0918E02F09149
:101C00008F02E80FF91F238134812250310981E0CE
:101C10002230310508F080E008950F931F93CF9391
:101C2000DF930091900210919102D0E0C0E080E03B
:101C30000C171D0749F491E0811190E0892FDF9185
:101C4000CF911F910F9108958111F5CFCE01CEDF75
:101C50002196EECFA0918E02B0918F02109729F1BC
:101C6000209190023091910282179307F0F453E192
:101C7000589F9001599F300D1124A20FB31FED9171
:101C8000FC911197309789F012968C91681768F43F
:101C90008DE0689FE00DF11D112480819181892BD9
:101CA00021F081E09281491708F080E008959C01BD
:101CB00043E1429FC001439F900D1124E0918E02A9
:101CC000F0918F02E80FF91F8385823091F481E053
:101CD00090E0658176814091290150912A01641735
:101CE000750711F490E080E0892B19F081E0232B37
:101CF00009F080E00895FC01A081B1818DE0689F2A
:101D0000A00DB11D112413964D915C91858596858A
:101D1000489F9001499F300D589F300D1124C901F3
:101D20000196611103C0478144FD04960895EF9226
:101D3000FF920F931F93CF93DF93EA01FC01E60F0D
:101D4000F71F02811381E480F5804F2D6E2DC801AD
:101D500081DF81110DC082E090E0998388838EEF4E
:101D60009FEFDF91CF911F910F91FF90EF9008951A
:101D7000C8013CDF882339F082E090E099838883B2
:101D800088EF9FEFEECF1093300100932F01E09288
:101D90003101F092320181E090E09983888390E0F4
:101DA00080E0DFCFCF92DF92EF92FF920F931F93ED
:101DB000CF93DF937A01EC01C60FD71FC0902F019C
:101DC000D09030010091310110913201412F602FEC
:101DD000C60140DF811110C082E090E0F7019183DD
:101DE00080838AEF9FEFDF91CF911F910F91FF903A
:101DF000EF90DF90CF900895C601F8DE882341F080
:101E000082E090E0F7019183808388EF9FEFEBCF32
:101E10004C815D816E817F819A8189818F3F41F004
:101E200082E090E0F701918380838EEF9FEFDBCF1C
:101E3000E3E1EC9D9001ED9D300D1124E0918E02C7
:101E4000F0918F02E20FF31F0190F081E02D2DE061
:101E5000029FE00DF11D11240190F081E02D27E09B
:101E6000129FE00DF11D1124808391838B81828369
:101E700043835483658376831F5F1093320181E02F
:101E800090E0F7019183808390E080E0ACCFEF9207
:101E9000FF920F931F93CF93DF937A018C01060F6C
:101EA000171FC0918E02D0918F02209781F021E000
:101EB00030E0F8018281938140919002509191022B
:101EC0008417950710F030E020E0232B71F482E0B6
:101ED00090E0F701918380838EEF9FEFDF91CF91A8
:101EE0001F910F91FF90EF90089543E1489F90015B
:101EF000499F300D1124C20FD31F78DE882341F093
:101F000082E090E0F7019183808388EF9FEFE6CF36
:101F1000F8012481358120383105C8F68781811187
:101F2000D6CF4181842F90E08F7E009741F082E0F0
:101F300090E0F7019183808386EF9FEFCFCF4F83AF
:101F40003E832D83268128871986223010F421E0D4
:101F5000288721E030E0F70131832083BFCF88E07C
:101F600090E0FA019183808390E080E00895FB0186
:101F70008FEF808381E181838FEF9FEF9383828353
:101F800080E890E095838483168217820895FB0190
:101F90008FEF808391E0918382839383848384E3B2
:101FA000858381E090E0978386830895DF92EF92A6
:101FB000FF920F931F93CF93DF93EA01FC01E60F8B
:101FC000F71F8181813071F082E090E099838883EE
:101FD0008FEF9FEFDF91CF911F910F91FF90EF90C7
:101FE000DF90089582819381D4802581E680F780F7
:101FF00000918E0210918F020115110539F482E0D3
:1020000090E0998388838CEF9FEFE4CF409190021A
:10201000509191028417950738F082E090E09983FF
:1020200088838EEF9FEFD6CF892B39F082E090E046
:102030009983888386EF9FEFCDCF8D2D8D7FB1F76C
:102040002130A1F781E0D11006C091E0E916F1043A
:1020500031F080E004C0E2E0EE16F104D0F3882312
:1020600029F390E080E0C2DD882339F082E090E03F
:102070009983888388EF9FEFADCFF801D38681E005
:102080008487F686E586108A178681E090E099833A
:10209000888390E080E09ECF4CE050E06AE671E0FB
:1020A00055CA8F929F92BF92CF92DF92EF92FF928A
:1020B0000F931F93CF93DF93EA01FC01E60FF71F05
:1020C000828193810481B580E0918E02F0918F022C
:1020D000309791F482E090E0998388838CEF9FEFB2
:1020E000DF91CF911F910F91FF90EF90DF90CF90F4
:1020F000BF909F908F90089520919002309191020F
:102100008217930738F082E090E0998388838EEFFE
:102110009FEFE6CF23E1289F6001299FD00C112477
:10212000EC0DFD1DE080F180E114F10499F2828153
:10213000081748F78DE0089F80011124E00EF11E7A
:10214000F70180819181892B29F6BB20E1F2F7E02C
:10215000BF9E40011124C4010E94171CF701918306
:102160008083E0918E02F0918F02EC0DFD1D0190B5
:10217000F081E02DE00FF11F80819181009739F40B
:1021800082E090E0998388838DEF9FEFA9CFA4012F
:1021900070E060E00E94BA2880918E0290918F02D8
:1021A000C80ED91EF60180819181080F191FF80110
:1021B000B28281E090E09983888390E080E090CFC4
:1021C000AF92BF92CF92DF92FF920F931F93CF9364
:1021D000DF93EA01FC01E60FF71F82819381F4800F
:1021E00000918E0210918F020115110581F482E099
:1021F00090E0998388838CEF9FEFDF91CF911F91BF
:102200000F91FF90DF90CF90BF90AF9008952091F5
:102210009002309191028217930738F082E090E0AB
:10222000998388838EEF9FEFE8CF2FEF2F0D2C3F00
:10223000A8F723E1289F6001299FD00C11240C0DE1
:102240001D1DF80180819181892B89F6FDE0FF9E9B
:1022500050011124C5010E94171CF801918380834D
:10226000E0918E02F0918F02EC0DFD1D8081918135
:10227000009739F482E090E0998388838DEF9FEF97
:10228000BCCFA50170E060E00E94BA28E0918E0208
:10229000F0918F02EC0DFD1DF28281E090E09983B8
:1022A000888390E080E0A9CFCF92DF92EF92FF92F7
:1022B0000F931F93CF93DF93860F971FFC0102812B
:1022C000138180918E0290918F02892B81F082E0A0
:1022D00090E0FA01918380838CEF9FEFDF91CF91A3
:1022E0001F910F91FF90EF90DF90CF900895C8015C
:1022F000B0E0A0E00197A109B1098F3F9F4FA10570
:10230000B10540F082E090E0FA01918380838EEF86
:102310009FEFE4CF7A0183E1809F6001819FD00C21
:102320001124C6010E94171CEC01009741F482E0C1
:1023300090E0F701918380838DEF9FEFCFCFA601CF
:1023400070E060E00E94BA28D0938F02C0938E02A2
:10235000109391020093900290E080E02FEF3FEF06
:1023600041E061E070E08017910741F481E090E086
:10237000F7019183808390E080E0B0CF3A8B298B86
:102380001B864C877E876D87188A1F860196639609
:10239000EACFEF92FF921F93CF93DF93EC0110E00F
:1023A000F12CE12C6A811617A8F070E0660F771FF8
:1023B000AE014F5E5F4FC7010E94441C009721F0A1
:1023C0002FEF3FEF3A8B298BDF91CF911F91FF9039
:1023D000EF900895612FCE018EDC61E070E00E94E5
:1023E000341BE816F90608F47C011F5FDBCFF89474
:1023F00020918C0230918D0281E02115310509F088
:1024000080E0232B09F0789408952F923F924F9209
:102410005F926F927F928F929F92AF92BF92CF9274
:10242000DF92EF92FF920F931F93CF93DF933C01C4
:10243000660E771EF301828193814C01B12CA12C91
:10244000C0918E02D0918F02209769F021E030E098
:1024500060919002709191028617970710F030E01A
:1024600020E0232BD1F482E090E0FA019183808375
:102470008EEF9FEFDF91CF911F910F91FF90EF9023
:10248000DF90CF90BF90AF909F908F907F906F9094
:102490005F904F903F902F900895809233019092DB
:1024A0003401A0923501B092360163E1689F90013A
:1024B000699F300D1124C20FD31FF3018181833036
:1024C00040F082E090E0FA019183808386EF9FEFF5
:1024D000D1CF2A012B813C81232BF1F42881398132
:1024E0009F8191FF2EC0232B09F46FC0209193028E
:1024F0009A81422F490F5527551FBA0141E050E0FC
:102500006138710514F050E040E0452B09F45DC0DE
:102510002A87920F909393028150823008F481C0F1
:1025200066DF882309F4D8C0F3018181813009F482
:102530008DC008F47BC0823009F4C6C090E080E012
:10254000ADC0232B09F441C0209192029A81E22F61
:10255000E90FFF27FF1F41E050E0ED3FF10514F0C8
:1025600050E040E0452B89F12A87920F9093920228
:10257000D3CFA081B181A20FB31F11966C91060F2A
:10258000111D0196295F3F4F8417950794F38D85A0
:102590009E85089F1001099F300C189F300C112454
:1025A000C114D104D1F48F8184FF17C00E94821B13
:1025B000F5E02F0E311C21E08215930508F420E090
:1025C000A701435F5F4F21110EC082E090E0F2014E
:1025D0009183808387EF9FEF4DCF0E94821B2FEF67
:1025E000221A320AE8CF88819981E80EF91EF70194
:1025F00014830383FFEFCF1ADF0A7A018A818C15D7
:102600001D0409F00CF48CCFE881F981EE0DFF1D5B
:10261000428150E030E020E010E000E090E080E017
:10262000B3CFF12CE12CD12CC12CE8CF81E090E08C
:102630009C838B83F2DA882309F480CF81E090E0D9
:102640000E94880A80E40E94960A78CF89899A8934
:10265000019661F083E090E09C838B8382E090E0C0
:102660000E94880A80E40E94900A68CF8D819E8132
:102670002091290130912A0182179307D1F46091AA
:102680002D0170912E01AE014F5E5F4F80912B01A5
:1026900090912C010E94FC1C0097E1F2789422E0BA
:1026A00030E0F20131832083892B99F08DEF9FEF89
:1026B000E1CE89288A288B2869F6029758F6CE0140
:1026C00068DE188A1F86E8CF82E090E09C838B83C7
:1026D00035CF90E080E0CECE82E090E0F2019183B1
:1026E000808385EF9FEFC6CE8F929F92AF92BF926D
:1026F000CF92DF92EF92FF920F931F93CF93DF93CE
:10270000EA018C01060F171FF8018181833098F0D0
:1027100082E090E09983888386EF9FEFDF91CF91ED
:102720001F910F91FF90EF90DF90CF90BF90AF90EF
:102730009F908F90089580918E0290918F02892BA7
:1027400061F081E090E02091900230919102232B82
:1027500011F490E080E0892B39F482E090E09983D5
:1027600088838EEF9FEFDACF42DE882309F4E0C042
:10277000F8018181813009F496C0E8F0823099F443
:102780002091900230919102E0918E02F0918F029F
:1027900090E080E041E050E02817390709F0BEC022
:1027A0003CDA811117C0789481E090E099838883A6
:1027B00090E080E0B3CF2091900230919102E091BF
:1027C0008E02F0918F0290E080E041E050E0281707
:1027D000390741F481E090E00E94880A80E40E9479
:1027E000960AE1CF63817481672B11F05483438390
:1027F00001967396ECCFE0918E02F0918F02E00F7C
:10280000F11F2381348122303105D9F421893289A5
:102810002F3F3F4FB1F425813681409129015091DE
:102820002A012417350761F5AF014F5E5F4F6091B4
:102830002D0170912E0180912B0190912C010E940D
:10284000FC1CEFEFCE1ADE0AEE0AFE0A0D5E1F4FE9
:10285000409190025091910270E060E0C416D5065C
:10286000E606F70644F5009731F27894892B09F4CF
:102870009BCF82E090E0998388838DEF9FEF4ECFCE
:10288000C114D104E104F104E1F622303105C8F6A7
:10289000CF017FDDE0918E02F0918F02E00FF11FFA
:1028A000108A1786CECF10E000E090E080E0C12CC7
:1028B000D12C7601CDCF0097C1F610E000E0812C3D
:1028C000912C540183E0E82EF12C1AC0E0918E0285
:1028D000F0918F02E00FF11F83819481029749F4F8
:1028E000F482E38282E090E00E94880A80E40E9401
:1028F000900AFFEF8F1A9F0AAF0ABF0A0D5E1F4FA3
:102900008091900290919102B0E0A0E08816990623
:10291000AA06BB06DCF290E080E0A7CF6381748159
:102920006230710511F4548343830196739634CF5A
:1029300082E090E09983888385EF9FEFEFCE009748
:10294000B9F48FEFFB018083209133013091340182
:1029500043E1429FC001439F900D1124E0918E02FC
:10296000F0918F02E80FF91F8285FB0181830895A2
:102970000C94410A88E090E0FA019183808390E012
:1029800080E0089510928D0210928C02EEE8F2E041
:1029900086E0DF011D928A95E9F78CE490E190933F
:1029A0008B0280938A02089580918A0290918B0213
:1029B00008952F923F924F925F926F927F928F92E3
:1029C0009F92AF92BF92CF92DF92EF92FF920F93BE
:1029D0001F93CF93DF93CDB7DEB72F970FB6F89441
:1029E000DEBF0FBECDBFF894E0918C02F0918D0256
:1029F0003196F0938D02E0938C02789440908E0291
:102A000050908F024114510409F40CC2E0919002DD
:102A1000F0919102EF2B09F405C22D8749875A875F
:102A20006B877C8798878F831201B12CA12C10E0D3
:102A300000E08091900290919102A816B90618F4D6
:102A40000115110529F1F89480918C0290918D0265
:102A5000019790938D0280938C027894C8012F96F1
:102A60000FB6F894DEBF0FBECDBFDF91CF911F919F
:102A70000F91FF90EF90DF90CF90BF90AF909F901D
:102A80008F907F906F905F904F903F902F90089520
:102A90007101E418F508D10117968C91179781FD03
:102AA00054C013968D919C911497039709F04DC0D3
:102AB00015968D919C91EF81F8858E179F0709F0EF
:102AC00044C0B50190E080E07ED48A8320918E02DC
:102AD00030918F023D832C833D85332309F44CC014
:102AE0004C815D81452B09F49AC1809190029091AF
:102AF0009102A816B90608F092C1C501D8D888235A
:102B0000E9F06C817D816E0D7F1D7D836C83DB011F
:102B10001F968D919C91892B89F0D12CC12CF12C81
:102B2000E12CAC81BD8112968C9112978E151F04F9
:102B300009F094F450961C921E921F972A8122232A
:102B400021F0B50190E080E040D43FEFA31AB30A32
:102B500043E1240E311C6DCFAC81BD81ED91FC9120
:102B6000EC0DFD1D8581968165D6BFEFEB1AFB0A42
:102B7000EDE0CE0ED11CD5CFEC81FD81309709F46C
:102B80004EC18091900290919102A816B90608F06A
:102B900046C1EE0DFF1DFF87EE87C50188D88B83E8
:102BA000882339F1AE85BF851F968D919C915097F2
:102BB000019621E01D964D915C918417950709F0CF
:102BC00020E02E831982712C10E000E0AE85BF85D5
:102BD00012968C91781608F45DC0EE85FF85878586
:102BE00090890196658576850E945C28908B878701
:102BF000A5CFB1E0BE83E6CF992493946BC017D6DE
:102C0000F6019683858382C0D601ED90FC90B7E0F3
:102C10006B9EE00CF11C1124F701638174818081AB
:102C20008F3F61F121E030E002C0220F331F8A950F
:102C3000E2F7C901092E000CAA0BBB0BFB01408176
:102C400051816281738184239523A623B72321E0D8
:102C5000892B8A2B8B2B09F420E0D4012C93D701EC
:102C600011968C91F60123853485820F932F911D47
:102C7000880E991E1486138663949BC0418150E090
:102C8000C4010E94B128EBCF998206EF1FEFC5C0A7
:102C90001982C3C0F981F111A0CFEDE07E9E7001D1
:102CA0001124AE85BF85CD90DC90CE0CDF1C13D4F3
:102CB0009D838C83BB81BB2309F49ECF81E0EE858D
:102CC000FF8527853089232B09F080E0982E882303
:102CD00009F458C0672D8E859F850DD8D6011896AA
:102CE0009C938E93179761E070E0BED4EE85FF85CC
:102CF000218932892F3F320709F481CFBC01C901F4
:102D0000BCD6D60116969C938E931597D601159630
:102D10008D919C911697009709F4B6CFEC81FD81B7
:102D20008E0F9F1F1A969C938E931997AE85BF8521
:102D3000ED91FC911197EE0EFF1EF7012185328572
:102D4000148613861A968C91870DD9018D93711074
:102D500016C0EE85FF85878184FF11C049855A859D
:102D60006B857C85F9014183528363837483F7010A
:102D7000838594850496A80FB91F14861386F701DE
:102D8000B287A187D60115968D919C911697892BB4
:102D900009F443C0EE85FF852581368180912901A4
:102DA00090912A012817390779F019968D909C90F7
:102DB000612CD60112968C911297681608F424CFD4
:102DC0001A969C928E921997BE81BB2309F460CF0C
:102DD00061E070E0F6018781908546D4D6011796B0
:102DE000ED90FC90189715964D915C91E1E0F0E024
:102DF000BA81BB2311F0F0E0E0E00C811D819C0161
:102E0000B501882799278E1B9F0B68D38C01892BCE
:102E100021F0F601858196810DD57394D7CE0FEF01
:102E20001FEF8CCE10E000E00ECE2F923F924F921B
:102E30005F926F927F928F929F92AF92BF92CF924A
:102E4000DF92EF92FF920F931F93CF93DF938091C6
:102E50008E0290918F0210E000E0892BA9F0C7DA72
:102E60000AEF1FEF882381F02090900230909102AA
:102E7000C0918E02D0918F02D12CC12C10E000E0C5
:102E80002C143D04A9F47894C801DF91CF911F91CF
:102E90000F91FF90EF90DF90CF90BF90AF909F90F9
:102EA0008F907F906F905F904F903F902F900895FC
:102EB000C6010E94570E882309F18B819C810397DC
:102EC000E9F48F859889892BC9F0B60190E080E0FC
:102ED0007AD221E030E0882311F030E020E0442471
:102EE0005524421A530AB12CA12C912C812C8A8191
:102EF0008815190409F038F4188A1F864FEFC41A90
:102F0000D40A6396BDCFE881F981EA0DFB1D858166
:102F10009681892BA1F161E070E087819085A4D32F
:102F20003C01D9D28C01E881F981EA0DFB1D818534
:102F3000928525813681200F311FAC01421B530B36
:102F40009A0147815085421B530B70E060E00E945C
:102F5000BA28E881F981EA0DFB1DE780F0844581FC
:102F600056819301B601C201B9D28C01892B39F087
:102F7000E881F981EA0DFB1D858196815BD45FEFC5
:102F8000851A950A8DE0A80EB11CB1CF30CA78948D
:102F900008952F923F924F925F926F927F929F92ED
:102FA000AF92BF92CF92DF92EF92FF920F931F9357
:102FB000CF93DF9300D000D000D0CDB7DEB7009123
:102FC0008E0210918F02992493940115110509F432
:102FD0003EC0A0909002B090910209DA982E88230A
:102FE000B1F110928F0210928E0210929102109203
:102FF000900210929202109293028FEF9FEFDC01E9
:103000008093330190933401A0933501B09336013E
:1030100078947AD31E830D83C12CD12C7601C501FF
:10302000B0E0A0E089839A83AB83BC8322242A94F6
:10303000322C89819A81AB81BC81C816D906EA06F7
:10304000FB06F4F0C801F6D380E40E94960A892DAD
:1030500026960FB6F894DEBF0FBECDBFDF91CF919D
:103060001F910F91FF90EF90DF90CF90BF90AF90A6
:103070009F907F906F905F904F903F902F9008951A
:10308000AD81BE8115968D919C9116972091290155
:1030900030912A0182179307D1F451968D919C911A
:1030A000DAD4ED81FE8180819181B12CA12C412C5B
:1030B000512C3201892B89F5BFEFCB1ADB0AEB0AC1
:1030C000FB0AED81FE817396FE83ED83B2CFC114BE
:1030D000D104E104F10429F7029718F7ED81FE818C
:1030E000818992898F3F980709F057D4AD81BE81BD
:1030F00052963C922E925197D4CF8A0D9B1DDC01A3
:103100008D919C91009709F095D3BFEF4B1A5B0A04
:103110006B0A7B0AEDE0AE0EB11CAD81BE818D91D4
:103120009C91119712964C9150E070E060E044162B
:103130005506660677060CF37DD3BECFCF93DF939B
:10314000EA0127DF811109C082E090E0998388833A
:1031500085EF9FEFDF91CF91089581E090E00E948D
:10316000880A81E090E09983888390E080E0F2CF44
:1031700010DF10928B0210928A02089542E050E014
:1031800062EB71E00C94A60AFF920F931F93CF930A
:10319000DF938A01EC01C60FD71FF980B4D20897DC
:1031A000F816190671F068F082E090E0F80191835A
:1031B00080838EEF9FEFDF91CF911F910F91FF9052
:1031C00008956C817D818E819F814B810E943D0D90
:1031D000811108C082E090E0F8019183808384EF40
:1031E0009FEFE9CFF9800E94380D4F2D50E0BE01CE
:1031F000685F7F4F0E94B12889810E94A70D81E0FE
:1032000090E0F8019183808390E080E0D4CFDF925A
:10321000EF92FF920F931F93CF93DF938A01EC01FC
:10322000C60FD71F0E94380D7C01D9806CD2DD20DB
:1032300059F0029721E030E0D816190619F010F085
:1032400030E020E0232B79F482E090E0F8019183D4
:1032500080838EEF9FEFDF91CF911F910F91FF90B1
:10326000EF90DF900895EF2841F482E090E0F801BC
:103270009183808384EF9FEFEECFF9800E94380D19
:103280004F2D50E0BE016E5F7F4F0E94B1288981B3
:103290000E94A70D81E090E0F8019183808390E087
:1032A00080E0D9CF8EEB98E19093950280939402C1
:1032B0000895809194029091950208950895FC01DB
:1032C00011821082938382830895DB011D921C92E8
:1032D000DC011296ED91FC91139771836083139634
:1032E0007C936E9312970895FC0180819181DB019C
:1032F0008D939C93A081B181109741F08D919C9109
:1033000091838083892B11F4F383E2830895FC0178
:1033100080819181DB018D939C93892B11F47383C0
:103320006283718360830895FC011182108293830C
:1033300082830895CF93DF9300D0CDB7DEB71A8292
:103340001982F894BE016F5F7F4F8BE992E0CCDF6A
:1033500089819A81009709F06DD289819A81892BA0
:1033600089F7BE016F5F7F4F8FE992E0BDDF8981F2
:103370009A81009709F05ED289819A81892B89F719
:1033800078940F900F90DF91CF910895CF93DF93B2
:1033900000D0CDB7DEB71A821982F894BE016F5FF4
:1033A0007F4F87E992E0A0DF89819A81009709F039
:1033B00041D289819A81892B89F778940F900F9057
:1033C000DF91CF91089581E0089590E080E0089525
:1033D000EF92FF920F931F93CF93DF9300D0CDB75F
:1033E000DEB71A8219828091960207EF1FEF8823B9
:1033F000A1F1F894BE016F5F7F4F8FE992E074DF17
:10340000789489819A81EE24E394F12C892B51F4EC
:10341000F894BE016F5F7F4F8BE992E065DF78948F
:10342000F12CE12C89819A810EEF1FEF0097A9F012
:10343000FC014281538164E070E00DD58C01892B41
:1034400061F0F89469817A81C701880F991F880F0C
:10345000991F85569D4F5BDF7894C8010F900F90A0
:10346000DF91CF911F910F91FF90EF9008950F93EF
:103470001F93CF93DF9300D000D0CDB7DEB71C826F
:103480001B821A8219828091960207EF1FEF882310
:10349000C1F0AE014D5F5F4F64E070E0CE01019678
:1034A0004DD58C01892B69F4E981FA818B819C814E
:1034B00093838283F89469817A8187E992E005DFBA
:1034C0007894C8010F900F900F900F90DF91CF91DB
:1034D0001F910F91089552D6049608958F929F924E
:1034E000AF92BF92CF92DF92EF92FF920F931F9312
:1034F000CF93DF9300D0CDB7DEB71A821982BC011B
:103500006F5F7F4F6330710598F0AA24AA94BA2C9C
:10351000C5010F900F90DF91CF911F910F91FF90F8
:10352000EF90DF90CF90BF90AF909F908F900895D5
:103530004115510551F3480159018A016C01CBDF56
:103540008815990511F7E114F104F9F28E0D9F1D0C
:10355000A816B906D0F2809196028823F1F0F8946B
:10356000B501645071099701AE014F5F5F4FC8010B
:10357000049679D55C01892B71F489819A81F801CF
:1035800093838283C601880F991F880F991FB80102
:1035900085569D4F9ADE7894BBCF87EFA82EBB242B
:1035A000BA94B6CFAF92BF92CF92DF92EF92FF92D2
:1035B0000F931F93CF93DF9300D0CDB7DEB71A825E
:1035C0001982892B09F047C06115710509F443C0C0
:1035D0004115510509F43FC02115310509F43BC0DF
:1035E00001151105C1F1809196028823B9F1790185
:1035F0006A015B01F894BE016F5F7F4F87E992E03B
:1036000073DE789489819A81009759F1DC011296D2
:103610006D917C91A80104963FD58C01E981FA81D6
:10362000D501ED93FC93828193810496F6019183F9
:10363000808351DFD7018D939C93C8010F900F9029
:10364000DF91CF911F910F91FF90EF90DF90CF907E
:10365000BF90AF9008950FEF1FEFEFCF07EF1FEF71
:10366000ECCF0EEF1FEFE9CFCF93DF93EC01672B89
:1036700071F48DD58C179D0760F080D52496C80F06
:10368000D91F7FD58C0F9D1FDF91CF9108957CD5D9
:10369000F1CF90E080E0F8CF0F931F93CF93DF93AB
:1036A0002091960221112BC08B01EC018BE992E055
:1036B00006DE8FE992E003DE87E992E000DE97D034
:1036C0000097C1F464D570E060E0CEDF47E351E0DD
:1036D00062E070E0D9D0009769F480913701909151
:1036E000380167D5B801CE019CD3009719F421E0C9
:1036F00020939602DF91CF911F910F91089584EF4F
:103700009FEFF8CF41C543C5CF93DF9343D5EC017D
:10371000892B11F40FDE3ADECE01DF91CF910895AF
:10372000CF93DF9337D5EC01892B09F403DECE016B
:10373000DF91CF91089580913701909138010895DC
:10374000CF93DF9380919602D0E0C0E08823D1F040
:1037500035D5EC01892BB1F4EDDD18DE8091370110
:10376000909138011AD1CED1EC01892B59F48BE913
:1037700092E0DADD8FE992E0D7DD87E992E0D4DDEF
:1037800010929602CE01DF91CF910895EF92FF92B1
:103790000F931F93CF93DF93EC017A018B010F5F9F
:1037A0001F4F0E9DA0010F9D500D1E9D500D112409
:1037B00070E060E00E94BA2890E080E0F0E0E0E095
:1037C0002FEFE816F90639F4DF91CF911F910F9191
:1037D000FF90EF9008951A8219822883309711F094
:1037E000D283C1830196FE01C00FD11FEACFE5EA63
:1037F000F2E085E8DF011D928A95E9F71092A402B4
:103800001092A302E1E3F3E0118210821582148288
:10381000138212821782168211861086EDE2F3E07F
:10382000118210821382128290E080E0089590E06D
:1038300080E00895009739F1DC018E91813041F4E8
:10384000E0912F03F09130033097E9F0CD01099416
:10385000811119C0F8948FEF8C938091310390916E
:10386000320312969C938E931197B0933203A093D8
:103870003103809133039091340301969093340384
:103880008093330378940895EF92FF920F931F93E0
:10389000CF93DF934115510509F47CC0009709F4DB
:1038A00079C06115710509F475C0EA01AB01BC016D
:1038B000F8948091310390913203892B19F588EAAD
:1038C00092E08C7F6D5F7F4F6C7F9B012F5F3F4F3E
:1038D000249F8001259F100D349F100D11242091ED
:1038E000390330913A032115310509F03CC0E090CD
:1038F000A302F090A40222E830E02E193F0920171D
:10390000310730F478942FEF3FEF86EF9FEF22C01E
:1039100090933203809331035093360340933503E1
:103920005093340340933303709338036093370309
:1039300010933A0300933903009709F027DF0E0D27
:103940001F1D1093A4020093A302789430E020E09E
:1039500090E080E039832883DF91CF911F910F9110
:10396000FF90EF9008952017310760F29093320393
:1039700080933103509336034093350350933403BF
:103980004093330370933803609337030097E9F251
:10399000FDDEDBCF8FEF9FEFDFCF892B51F5F89462
:1039A00010923203109231031092360310923503B5
:1039B000109234031092330310923803109237039D
:1039C0002091390330913A032115310571F080912E
:1039D000A3029091A402821B930B9093A402809364
:1039E000A30210923A0310923903789490E080E099
:1039F00008958FEF9FEF08954115510549F1009704
:103A000039F16115710521F1F89420912D03309160
:103A10002E03232BB9F420912F0330913003232B55
:103A200089F490932E0380932D0370933003609359
:103A30002F03789421E030E090E080E0FA013183B8
:103A40002083089578942FEF3FEF86EF9FEFF6CF16
:103A50008FEF9FEF0895019769F4F89410922E0369
:103A600010922D031092300310922F03789490E05F
:103A700080E008958FEF9FEF08956115710519F4A7
:103A8000F0E0E0E011C08130910581F4E0912D0378
:103A9000F0912E033097A1F3CB0101960995009781
:103AA00079F3FC0181E08193CF010895892B41F7DF
:103AB0008091310390913203892B11F38091370368
:103AC0009091380386179707D8F2F89480913303C2
:103AD00090913403009731F0E0913103F09132037B
:103AE000309711F47894CCCF218132813093320316
:103AF0002093310301979093340380933303119201
:103B00007894D2CFEAE2F3E083E0DF011D928A9558
:103B1000E9F7E5EAF2E085E8DF011D928A95E9F729
:103B20001092A4021092A302E1E3F3E08AE0DF0125
:103B30001D928A95E9F7EDE2F3E084E0DF011D9242
:103B40008A95E9F790E080E00895CF93DF93C091E4
:103B50003901D0913A01CF3FDC0759F4C1D390939A
:103B60003A018093390197FF09C0D0933A01C0937D
:103B7000390184EF9FEFDF91CF91089590E080E0CD
:103B8000FACF8230910528F480933B0390E080E0E7
:103B900008958FEF9FEF08954F925F926F927F92FB
:103BA000AF92BF92CF92DF92EF92FF920F931F934B
:103BB000CF93DF9300D0CDB7DEB71A82198200977A
:103BC00009F478C06115710509F474C020913901B8
:103BD00030913A0107EF1FEF2F3F3F4F09F444C0E8
:103BE0006B015C01412C512C3201F12CE12C10E0D5
:103BF00000E09E012F5F3F4FA6014E195F09B501FE
:103C00006E0D7F1D8091390190913A01C8D3892BA7
:103C100009F04AC089819A81009741F4E114F104C6
:103C200029F420913B03222309F441C0E80EF91E38
:103C3000EC14FD04C8F480E8481684E858068EE1C8
:103C40006806710418F560E070E0CB0147D72AE000
:103C5000420E511C611C711C0A3F4FEF140721F0EA
:103C6000043F8FEF1807A1F4C8010F900F90DF9168
:103C7000CF911F910F91FF90EF90DF90CF90BF9069
:103C8000AF907F906F905F904F90089501EF1FEF7E
:103C900081E090E0013F2FEF120711F090E080E00B
:103CA000892B09F4A6CFE0CF04EF1FEFDDCF0AEF99
:103CB0001FEFDACF0FEF1FEFD7CF4F925F926F92C8
:103CC0007F92AF92BF92CF92DF92EF92FF920F93CB
:103CD0001F93CF93DF9300D0CDB7DEB71A8219823E
:103CE000009709F478C06115710509F474C020913A
:103CF000390130913A0107EF1FEF2F3F3F4F09F491
:103D000044C06B015C01412C512C3201F12CE12C9F
:103D100010E000E09E012F5F3F4FA6014E195F09A2
:103D2000B5016E0D7F1D8091390190913A01EDD260
:103D3000892B09F04AC089819A81009741F4E114E6
:103D4000F10429F420913B03222309F441C0E80E39
:103D5000F91EEC14FD04C8F480E4481682E4580609
:103D60008FE06806710418F560E070E0CB01B6D60C
:103D70002AE0420E511C611C711C0E3F4FEF1407CC
:103D800021F0043F8FEF1807A1F4C8010F900F90A6
:103D9000DF91CF911F910F91FF90EF90DF90CF9027
:103DA000BF90AF907F906F905F904F90089502EF1B
:103DB0001FEF81E090E0023F2FEF120711F090E03B
:103DC00080E0892B09F4A6CFE0CF04EF1FEFDDCF11
:103DD0000EEF1FEFDACF0FEF1FEFD7CF8091390132
:103DE00090913A018F3F980749F072D2892B49F49C
:103DF0008FEF9FEF90933A018093390190E080E03C
:103E0000089584EF9FEF0895FC01680F791F90E0FB
:103E100080E0E617F70709F408952191820F911DBC
:103E2000F8CF20913C03211113C08FDE009791F44D
:103E300010924203109241031092400310923F03EC
:103E400010923E0310923D0321E020933C0308951D
:103E500084EF9FEF0895AF92BF92CF92DF92EF92DF
:103E6000FF920F931F93CF93DF93009709F460C0E5
:103E70004630510508F45CC020913C03C7EFDFEFEA
:103E8000222309F449C08C01060F171FF801C080D6
:103E9000D180C114D10409F44EC096012A5F3F4F6E
:103EA0004217530708F447C07C0180914103909169
:103EB000420393838283B6016C5F7F4F5801A60E45
:103EC000B71EC801A1DFF5019183808364E070E033
:103ED000C80162DEEC01892BF9F481E090E051DE4B
:103EE000B601C801049658DEEC01892B91F462E01A
:103EF00070E0C50151DEEC01892B59F4C7019ADC51
:103F000080914103909142030196909342038093E4
:103F1000410390E080E035DECE01DF91CF911F912B
:103F20000F91FF90EF90DF90CF90BF90AF900895EA
:103F3000CFEFDFEFF1CFC9EFDFEFEECF6F927F92E0
:103F40008F929F92AF92BF92CF92DF92EF92FF92A9
:103F50000F931F93CF93DF9300D000D0CDB7DEB780
:103F6000009709F47AC04115510509F476C02091F3
:103F70003C0307EF1FEF222309F44DC03A017B01F8
:103F80005C0164E070E0CE01019697DE8C01892B24
:103F900009F041C009811A810115110509F45AC0BF
:103FA000480186E0880E911CB701680D791D80914B
:103FB0003B0190913C0161DD6C01009709F450C018
:103FC000A70170E060E00E94BA2889819A81AB81E4
:103FD000BC81EC0CFD1CF70181939193A193B193EB
:103FE0007F0181E090E0CDDDB801C70166DE892B5D
:103FF00031F562E070E0C701800F911F5EDE8C0139
:10400000892BE9F490E080E0BCDDF501D182C0822B
:10401000F30191828082C8010F900F900F900F9052
:10402000DF91CF911F910F91FF90EF90DF90CF9094
:10403000BF90AF909F908F907F906F90089590E089
:1040400080E09FDDF50111821082F3011182108260
:10405000C601F0DB09EF1FEFDECF0FEF1FEFDBCF65
:1040600006EF1FEFD8CF0097A1F04115510589F059
:104070002115310571F0F90136966E177F0748F06A
:10408000DC012D933C93DA01ED93FC9390E080E00A
:1040900008958FEF9FEF0895AF92BF92CF92DF9276
:1040A000EF92FF920F931F93CF93DF93009709F442
:1040B0005FC04115510509F45BC06530710508F416
:1040C00057C020913C03C7EFDFEF222391F1DC01C1
:1040D000CD90DC9011971296ED91FC9196012A5F9C
:1040E0003F4FC9EFDFEF2617370719F5C0913D03A2
:1040F000D0913E03209749F521E030E030933E0314
:1041000020933D037A018C01F0934003E0933F0339
:104110005601B4E0AB0EB11CB50176DE0A0D1B1DD5
:10412000F801208131818217930729F5D701CD92BB
:10413000DC92CE01DF91CF911F910F91FF90EF9014
:10414000DF90CF90BF90AF90089520913F033091C2
:1041500040032F5F3F4FCCEFDFEFE217F30790F202
:10416000CBEFDFEF2E173F0768F2D0E0C0E0CACFF9
:10417000CFEFDFEFDECFC3EFDFEFDBCF84E090E008
:10418000089582E090E008958CEF9FEF089580E21B
:1041900090E0089510924203109241031092400360
:1041A00010923F0310923E0310923D0390E080E096
:1041B000089590933C0180933B01089580913C03C6
:1041C000882391F00BDE009789F41092420310923D
:1041D00041031092400310923F0310923E0310924D
:1041E0003D0310923C03089590E080E0089500970D
:1041F00049F06115710531F0FC0111821082FB015B
:10420000118210820895F3CF26E030E040E855E2B5
:1042100060E070E090E080E000C0892B19F483E555
:1042200093E029C608951F920F920FB60F921124A2
:104230002F933F934F935F936F937F938F939F93AE
:10424000AF93BF93EF93FF938BEC93EF9093850025
:1042500080938400B7D0FF91EF91BF91AF919F9170
:104260008F917F916F915F914F913F912F910F901F
:104270000FBE0F901F9018958BEC93EF90938500D5
:1042800080938400AFE6B0E08C918E7F8C93E0E861
:10429000F0E080818C7F8083E1E8F0E08081877EA0
:1042A000808380818560808380818D7F80838C91F5
:1042B00081608C930895EFE6F0E0808190819E7F8D
:1042C00090838170089581E00895109243030895CA
:1042D00068EE73E080E090E001D490E080E0089523
:1042E00026E030E040E050E16EE070E090E080E0F9
:1042F00094DF83E593E0F5D4892B21F083E593E007
:104300000AD5F7CF90E080E00895CF92DF92EF9248
:10431000FF920F931F93CF93DF936B017A01E90113
:104320001982188283E593E0DCD4892B69F1860138
:10433000CC24C39482E0D82E80914303811110C015
:1043400083E593E0E8D40297B9F7C0924303F801FC
:10435000D1928F0188819981019699838883ECCFCE
:10436000888199818E159F0578F483E593E0D3D4F5
:104370008F3F9807A9F3F80181938F018881998174
:10438000019699838883ECCF90E080E0DF91CF9114
:104390001F910F91FF90EF90DF90CF9008950F93B2
:1043A0001F93CF93DF93EA01890183E593E047D61A
:1043B000F801D183C08390E080E0DF91CF911F911D
:1043C0000F910895CF92DF92EF92FF920F931F9378
:1043D000CF93DF9300D0CDB7DEB78091460391E055
:1043E000980F90934603882399F021E030E03093B2
:1043F000490320934803809346030F900F90DF9169
:10440000CF911F910F91FF90EF90DF90CF90089583
:10441000CE0101960E941E02789400913E011091F7
:104420003F01F801C28CD38CE48CF58C0E9475029C
:10443000B701A60190E080E00E949101F89480917C
:1044400046038150809346038A81882389F08091B6
:10445000450391E0980F90934503882349F021E0AC
:1044600030E0309349032093480380934503C5CF40
:1044700080914503882309F4C0CF809147038111BF
:10448000BCCF81E0809347037894F80122A133A147
:1044900044A155A1A5E0B0E04BD66B017C010E9480
:1044A0003503B701A60181E090E00E949101F894E4
:1044B000809145038150809345038091470381504B
:1044C000809347039ACF0F931F93CF93DF9310925C
:1044D00009041092080438D397DEC0913E01D091B0
:1044E0003F01198218826FEF7FEFCB010E94130208
:1044F00070E060E090E080E00E949500009709F095
:104500003AC00E94D303F8947894BE01685D7F4F4F
:104510008A819B810E949800892B59F46FEF7FEF6D
:10452000CB010E9427010E940D02882311F081E037
:104530008CA7F894A1DE0E941002882311F080E07D
:1045400008C00E940D028111FACF81E09CA5911153
:10455000F6CF8093080478940E94830A8C017894A3
:104560008091080481110CC00E9450040E94F30144
:10457000F89490E080E0DF91CF911F910F91089522
:104580000E94F1010E9410028823D9F081E08093FB
:1045900009049091090481E0911180E0809308045E
:1045A00080910904811187DE0130110529F40E94F0
:1045B000830A892B09F489DE0E94830A8C0183DE39
:1045C000CFCF0E940D028111E1CF81E09CA5911116
:1045D000DECF80E0DCCF5058BB27AA270ED057C1D2
:1045E00048D130F04DD120F031F49F3F11F41EF44A
:1045F0003DC10EF4E095E7FB0AC1E92F59D180F3E4
:10460000BA17620773078407950718F071F49EF5CF
:1046100088C10EF4E0950B2EBA2FA02D0B01B90125
:1046200090010C01CA01A0011124FF27591B99F028
:10463000593F50F4503E68F11A16F040A22F232F34
:10464000342F4427585FF3CF469537952795A79584
:10465000F0405395C9F77EF41F16BA0B620B730B2B
:10466000840BBAF09150A1F0FF0FBB1F661F771F9C
:10467000881FC2F70EC0BA0F621F731F841F48F451
:10468000879577956795B795F7959E3F08F0B3CFD7
:104690009395880F08F09927EE0F979587950895C1
:1046A00029D180F09F3740F491110EF43BC160E0B6
:1046B00070E080E89FE3089526F01B16611D711DD0
:1046C000811DABC0C5C07FD008F481E00895F8D04B
:1046D00088F09F5790F0B92F9927B751A0F0D1F0EB
:1046E000660F771F881F991F1AF0BA95C9F712C075
:1046F000B13081F016D1B1E0089513C1672F782F42
:104700008827B85F39F0B93FCCF3869577956795E0
:10471000B395D9F73EF490958095709561957F4F4C
:104720008F4F9F4F0895E89409C097FB3EF49095F2
:104730008095709561957F4F8F4F9F4F9923A9F07A
:10474000F92F96E9BB279395F69587957795679509
:10475000B795F111F8CFFAF4BB0F11F460FF1BC04D
:104760006F5F7F4F8F4F9F4F16C0882311F096E9E0
:1047700011C0772321F09EE8872F762F05C066238E
:1047800071F096E8862F70E060E02AF09A95660F47
:10479000771F881FDAF7880F9695879597F9089500
:1047A000A9D080F09F3740F491110EF0BBC060E0BB
:1047B00070E080E89FEB089526F41B16611D711DC3
:1047C000811D2BC045C0990F0008550FAA0BE0E8CA
:1047D000FEEF16161706E807F907C0F012161306C3
:1047E000E407F50798F0621B730B840B950B39F403
:1047F0000A2661F0232B242B252B21F408950A2669
:1048000009F4A140A6958FEF811D811D089597F9A8
:104810009F6780E870E060E00895882371F4772353
:1048200021F09850872B762F07C0662311F4992723
:104830000DC09051862B70E060E02AF09A95660FCB
:10484000771F881FDAF7880F9695879597F908954F
:104850009F3F31F0915020F4879577956795B795F4
:10486000880F911D9695879597F908959FEF80EC95
:10487000089500240A9416161706180609060895C6
:1048800000240A9412161306140605060895092E2C
:104890000394000C11F4882352F0BB0F40F4BF2B9B
:1048A00011F460FF04C06F5F7F4F8F4F9F4F0895DB
:1048B00057FD9058440F551F59F05F3F71F04795D1
:1048C000880F97FB991F61F09F3F79F087950895B6
:1048D000121613061406551FF2CF4695F1DF08C0D5
:1048E000161617061806991FF1CF869571056105F2
:1048F00008940895E5DFA0F0BEE7B91788F4BB2758
:104900009F3860F41616B11D672F782F8827985F9F
:10491000F7CF869577956795B11D93959639C8F32E
:104920000895E894BB2766277727CB0197F9089568
:104930004ADF08F48FEF08950BD0A9CF9ADF28F053
:104940009FDF18F0952309F062CF90CF1124EACFB2
:10495000AFDFA0F3959FD1F3950F50E0551F629FF5
:10496000F001729FBB27F00DB11D639FAA27F00DC8
:10497000B11DAA1F649F6627B00DA11D661F829FEF
:104980002227B00DA11D621F739FB00DA11D621FD4
:10499000839FA00D611D221F749F3327A00D611DF1
:1049A000231F849F600D211D822F762F6A2F1124D3
:1049B0009F5750408AF0E1F088234AF0EE0FFF1F26
:1049C000BB1F661F771F881F91505040A9F79E3F5D
:1049D000510570F01CCFA6CF5F3FECF3983EDCF39F
:1049E000869577956795B795F795E7959F5FC1F79A
:1049F000FE2B880F911D9695879597F908951F9224
:104A00000F920FB60F9211242F933F938F939F9382
:104A1000AF93BF9380914B0390914C03A0914D03B2
:104A2000B0914E0330914A0323E0230F2D3758F500
:104A30000196A11DB11D20934A0380934B039093CF
:104A40004C03A0934D03B0934E0380914F0390917C
:104A50005003A0915103B09152030196A11DB11DC5
:104A600080934F0390935003A0935103B09352034C
:104A7000BF91AF919F918F913F912F910F900FBE5A
:104A80000F901F90189526E8230F0296A11DB11DC7
:104A9000D2CF3FB7F89480914F0390915003A091EB
:104AA0005103B091520326B5A89B05C02F3F19F0C2
:104AB0000196A11DB11D3FBFBA2FA92F982F88279E
:104AC000BC01CD01620F711D811D911D42E0660F79
:104AD000771F881F991F4A95D1F708958F929F924B
:104AE000AF92BF92CF92DF92EF92FF926B017C0167
:104AF000D0DF4B015C01C114D104E104F104D9F011
:104B0000CBD2C7DF681979098A099B09683E7340CF
:104B10008105910580F321E0C21AD108E108F1086E
:104B200088EE880E83E0981EA11CB11CC114D1042C
:104B3000E104F10431F7FF90EF90DF90CF90BF9048
:104B4000AF909F908F900895789484B5826084BDD3
:104B500084B5816084BD85B5826085BD85B5816081
:104B600085BDEEE6F0E0808181608083E1E8F0E0E1
:104B70001082808182608083808181608083E0E810
:104B8000F0E0808181608083E1EBF0E080818460EF
:104B90008083E0EBF0E0808181608083EAE7F0E0F1
:104BA0008081846080838081826080838081816055
:104BB00080838081806880831092C1000895833053
:104BC00081F028F4813099F08230A9F0089587307F
:104BD000A9F08830C9F08430B1F4809180008F7DD5
:104BE00003C0809180008F7780938000089584B502
:104BF0008F7784BD089584B58F7DFBCF8091B00001
:104C00008F778093B00008958091B0008F7DF9CFA9
:104C1000CF93DF9390E0FC01E458FF4F249180573D
:104C20009F4FFC0184918823C9F090E0880F991F61
:104C3000FC01E255FF4FA591B491FC01EC55FF4FEB
:104C4000C591D49161110DC09FB7F8948C912095B6
:104C500082238C938881282328839FBFDF91CF9163
:104C60000895623051F49FB7F8943C91822F80955B
:104C700083238C93E8812E2BEFCF8FB7F894EC91A0
:104C80002E2B2C938FBFEACF1F93CF93DF93282F28
:104C900030E0F901E859FF4F8491F901E458FF4FE2
:104CA000D491F901E057FF4FC491CC23A1F0162F06
:104CB000811185DFEC2FF0E0EE0FFF1FEC55FF4F69
:104CC000A591B4918FB7F894EC91111108C0D095CB
:104CD000DE23DC938FBFDF91CF911F910895DE2BF0
:104CE000F8CFFC01918D228D892F90E0805C9F4F41
:104CF000821B91098F7399270895FC01918D828DF4
:104D0000981731F0828DE80FF11D858D90E00895A0
:104D10008FEF9FEF0895FC01918D828D981761F0C0
:104D2000A28DAE0FBF2FB11D5D968C91928D9F5FAE
:104D30009F73928F90E008958FEF9FEF0895FC018D
:104D4000538D448D252F30E0842F90E0821B930BF0
:104D5000541710F0CF96089501970895FC01A48D83
:104D6000A80FB92FB11DA35ABF4F2C91848D90E08D
:104D700001968F739927848FA689B7892C93A08970
:104D8000B1898C91837080648C93938D848D9813FA
:104D900006C00288F389E02D80818F7D808308958D
:104DA000CF93DF93EC01888D8823B1F0AA89BB896A
:104DB000E889F9898C9185FD03C0808186FD0CC04E
:104DC0000FB607FCF7CF8C9185FFF2CF808185FF6E
:104DD000EDCFCE01C3DFEACFDF91CF910895EF92FF
:104DE000FF920F931F93CF93DF93EC0181E0888FA5
:104DF0009B8D8C8D98131AC0E889F989808185FF75
:104E000015C09FB7F894EE89FF896083E889F98916
:104E100080818370806480839FBF81E090E0DF9118
:104E2000CF911F910F91FF90EF900895F62E0B8D6B
:104E300010E00F5F1F4F0F731127E02E8C8D8E1126
:104E40000BC00FB607FCFACFE889F989808185FF8E
:104E5000F5CFCE0183DFF2CFEB8DEC0FFD2FF11DEF
:104E6000E35AFF4FF0829FB7F8940B8FEA89FB89D2
:104E700080818062D0CFCF92DF92EF92FF921F931A
:104E8000CF93DF93EC016A017B01122FE889F98946
:104E900082E08083C11481EED806E104F10499F028
:104EA00060E079E08DE390E0A701960119D12150EF
:104EB000310941095109569547953795279521158F
:104EC00080E1380790F0E889F989108260E874E899
:104ED0008EE190E0A701960103D1215031094109EB
:104EE00051095695479537952795EC85FD85308373
:104EF000EE85FF852083188EEC89FD891083EA8971
:104F0000FB89808180618083EA89FB898081886058
:104F10008083EA89FB89808180688083EA89FB89B4
:104F200080818F7D8083DF91CF911F91FF90EF90E3
:104F3000DF90CF9008951F920F920FB60F92112419
:104F40002F938F939F93EF93FF93E0916303F091DF
:104F500064038081E0916903F0916A0382FD1BC0C4
:104F6000908180916C038F5F8F7320916D03821706
:104F700041F0E0916C03F0E0ED5AFC4F958F809387
:104F80006C03FF91EF919F918F912F910F900FBE26
:104F90000F901F9018958081F4CF1F920F920FB63B
:104FA0000F9211242F933F934F935F936F937F93AF
:104FB0008F939F93AF93BF93EF93FF9383E593E01A
:104FC000CDDEFF91EF91BF91AF919F918F917F9136
:104FD0006F915F914F913F912F910F900FBE0F9066
:104FE0001F901895E3E5F3E01382128288EE93E0B8
:104FF000A0E0B0E084839583A683B78382EC91E040
:105000009183808385EC90E09587848784EC90E0A1
:105010009787868780EC90E0918B808B81EC90E085
:10502000938B828B82EC90E0958B848B86EC90E066
:10503000978B868B118E128E138E148E0895AF92DD
:10504000BF92CF92DF92EF92FF920F931F93CF9375
:10505000DF936C017B018B01040F151FEB015E01D7
:10506000AE18BF08C017D10759F06991D601ED916C
:10507000FC910190F081E02DC6010995892B79F70B
:10508000C501DF91CF911F910F91FF90EF90DF90BD
:10509000CF90BF90AF9008950895DB018F939F93B9
:1050A00047D0BF91AF91A29F800D911DA39F900DFE
:1050B000B29F900D11240895AA1BBB1B51E107C09C
:1050C000AA1FBB1FA617B70710F0A61BB70B881F98
:1050D000991F5A95A9F780959095BC01CD01089527
:1050E000A1E21A2EAA1BBB1BFD010DC0AA1FBB1FEC
:1050F000EE1FFF1FA217B307E407F50720F0A21B5E
:10510000B30BE40BF50B661F771F881F991F1A94CA
:1051100069F760957095809590959B01AC01BD01F4
:10512000CF010895EE0FFF1F0590F491E02D099433
:1051300009D0A59F900DB49F900DA49F800D911D47
:1051400011240895A29FB001B39FC001A39F700DC9
:10515000811D1124911DB29F700D811D1124911D7F
:105160000895FB01DC0102C001900D9241505040B6
:10517000D8F70895DC0101C06D9341505040E0F72D
:065180000895F894FFCF32
:105186000000A040000020410000803F0000000019
:105196000000A040000000400000803F000000002A
:1051A600FEFFFFFF01E8030000FFFF00000000FF15
:1051B600FFFFFFFFFFFFFFFFFFFFFFFFFF01E6010E
:1051C600FF00DA0C060DFE00C00C410AFD00520C71
:1051D600AC0CFC00980C410AF600890D410AF5005A
:1051E6005F0CC80DF400520DDF0DDE0005129F1492
:1051F600DD007413410ADA00AF0FB70FD900BA14F5
:10520600C70FE200970E410AE100D20E410AE00004
:10521600470F410AD6009E18410AD5005411410A8B
:10522600D400E010410AD3005110410AC000D60F45
:10523600410AF0000719410AED00C418410A0000AE
:105246000000EF261F289F26D02671268B267D2656
:00000001FF
